{
  "contractName": "myTime",
  "abi": [
    {
      "inputs": [],
      "name": "lastGasUsed",
      "outputs": [
        {
          "internalType": "uint256",
          "name": "",
          "type": "uint256"
        }
      ],
      "stateMutability": "view",
      "type": "function",
      "constant": true
    },
    {
      "inputs": [],
      "name": "measureLoopGas",
      "outputs": [],
      "stateMutability": "nonpayable",
      "type": "function"
    }
  ],
  "bytecode": "0x608060405234801561001057600080fd5b506101c5806100206000396000f3fe608060405234801561001057600080fd5b50600436106100365760003560e01c806335983e511461003b57806395c570bd14610045575b600080fd5b610043610063565b005b61004d6100a9565b60405161005a91906100c8565b60405180910390f35b60005a905060005b606481101561008d57600081905050808061008590610112565b91505061006b565b5060005a9050808261009f919061015b565b6000819055505050565b60005481565b6000819050919050565b6100c2816100af565b82525050565b60006020820190506100dd60008301846100b9565b92915050565b7f4e487b7100000000000000000000000000000000000000000000000000000000600052601160045260246000fd5b600061011d826100af565b91507fffffffffffffffffffffffffffffffffffffffffffffffffffffffffffffffff8214156101505761014f6100e3565b5b600182019050919050565b6000610166826100af565b9150610171836100af565b925082821015610184576101836100e3565b5b82820390509291505056fea264697066735822122008a568a9b13e7d113a49563ba47d3f2dbaf36daef5ebdb1483912043ca88f89a64736f6c634300080b0033",
  "immutableReferences": {},
  "source": "// SPDX-License-Identifier: MIT\r\npragma solidity ^0.8.0;\r\n\r\ncontract myTime {\r\n    uint256 public lastGasUsed;\r\n\r\n    function measureLoopGas() public {\r\n        uint256 gasBefore = gasleft();\r\n        for (uint256 i = 0; i < 100; i++) {\r\n            uint256 x = i;\r\n        }\r\n        uint256 gasAfter = gasleft();\r\n        lastGasUsed = gasBefore - gasAfter;\r\n    }\r\n}\r\n",
  "sourcePath": "E:\\FL Research\\Demo\\time\\contracts\\myTime.sol",
  "compiler": {
    "name": "solc",
    "version": "0.8.11+commit.d7f03943.Emscripten.clang"
  },
  "schemaVersion": "3.4.16",
  "updatedAt": "2024-06-10T15:09:58.670Z",
  "networkType": "ethereum",
  "devdoc": {
    "kind": "dev",
    "methods": {},
    "version": 1
  },
  "userdoc": {
    "kind": "user",
    "methods": {},
    "version": 1
  }
}